{
  "transactions": [
    {
      "hash": "0x172986ad28cced90e3e017e77b2dc89003685d1e0c22b1700e34084cd09a02bc",
      "transactionType": "CALL",
      "contractName": null,
      "contractAddress": "0x2f245e60ee78acb2847d8fe1336725307c7b38df",
      "function": "addAsset(address,uint256)",
      "arguments": [
        "0xb88339CB7199b77E23DB6E890353E22632Ba630f",
        "1000000"
      ],
      "transaction": {
        "from": "0x5c8a5483bcdb51f858a9cf4a647df6d34fddf81c",
        "to": "0x2f245e60ee78acb2847d8fe1336725307c7b38df",
        "gas": "0x1c5ef",
        "value": "0x0",
        "input": "0x66a6a4bd000000000000000000000000b88339cb7199b77e23db6e890353e22632ba630f00000000000000000000000000000000000000000000000000000000000f4240",
        "nonce": "0xf",
        "chainId": "0x3e7"
      },
      "additionalContracts": [],
      "isFixedGasLimit": false
    }
  ],
  "receipts": [
    {
      "status": "0x1",
      "cumulativeGasUsed": "0x3b5fe",
      "logs": [
        {
          "address": "0x2f245e60ee78acb2847d8fe1336725307c7b38df",
          "topics": [
            "0x66ace591f7c88075839f4a0246420d0cc8a34cbe9a924cd0e1ca63c336344f4b",
            "0x000000000000000000000000b88339cb7199b77e23db6e890353e22632ba630f"
          ],
          "data": "0x00000000000000000000000000000000000000000000000000000000000f4240",
          "blockHash": "0x3d69cdeb4e797310d7edb1f0bcb3c304cda01b96e6287b92573dcc5a22ee12fe",
          "blockNumber": "0x1279bf5",
          "blockTimestamp": "0x6919f500",
          "transactionHash": "0x172986ad28cced90e3e017e77b2dc89003685d1e0c22b1700e34084cd09a02bc",
          "transactionIndex": "0x2",
          "logIndex": "0x4",
          "removed": false
        }
      ],
      "logsBloom": "0x00000000000000000000000000000000000000020000000000000008000000000000000000000000000040000000000000000000000000000000000000000000008000000000000000000000000000000000000000000000000000000000000000000000000000000000000000000000000000000000000000000000000000000000002000000000000000000000000000000000000000000000000000000000000000000000000000000000000000000000000000000000000400000000400000000400000000000000000000000000000000000000000000000000000000000000000000000000000008000000000000000000000000000000000000000000",
      "type": "0x2",
      "transactionHash": "0x172986ad28cced90e3e017e77b2dc89003685d1e0c22b1700e34084cd09a02bc",
      "transactionIndex": "0x2",
      "blockHash": "0x3d69cdeb4e797310d7edb1f0bcb3c304cda01b96e6287b92573dcc5a22ee12fe",
      "blockNumber": "0x1279bf5",
      "gasUsed": "0x148a4",
      "effectiveGasPrice": "0x1334b88e",
      "from": "0x5c8a5483bcdb51f858a9cf4a647df6d34fddf81c",
      "to": "0x2f245e60ee78acb2847d8fe1336725307c7b38df",
      "contractAddress": null
    }
  ],
  "libraries": [],
  "pending": [],
  "returns": {},
  "timestamp": 1763308801752,
  "chain": 999,
  "commit": "1176d8e"
}