{
  "transactions": [
    {
      "hash": "0x5be91866d3cda1dfcf408b99f08bcbd7d1222901b062fae5f82f1b15b5fbca79",
      "transactionType": "CALL",
      "contractName": null,
      "contractAddress": "0x86f11a6db84635f566430e7cb0224f6c4ac6a28f",
      "function": "setRoleCapability(uint8,address,bytes4,bool)",
      "arguments": [
        "2",
        "0x8851862f714f2984c3E3Bcfc9Fafb57D67dB6845",
        "0x39d6ba32",
        "true"
      ],
      "transaction": {
        "from": "0x5c8a5483bcdb51f858a9cf4a647df6d34fddf81c",
        "to": "0x86f11a6db84635f566430e7cb0224f6c4ac6a28f",
        "gas": "0x129c5",
        "value": "0x0",
        "input": "0x7d40583d00000000000000000000000000000000000000000000000000000000000000020000000000000000000000008851862f714f2984c3e3bcfc9fafb57d67db684539d6ba32000000000000000000000000000000000000000000000000000000000000000000000000000000000000000000000000000000000000000000000001",
        "nonce": "0x10",
        "chainId": "0x3e7"
      },
      "additionalContracts": [],
      "isFixedGasLimit": false
    },
    {
      "hash": "0x841a38c539b270c7a1d28313e9c0b56d82234ebacbe656e899b09dc8318be47a",
      "transactionType": "CALL",
      "contractName": null,
      "contractAddress": "0x86f11a6db84635f566430e7cb0224f6c4ac6a28f",
      "function": "setRoleCapability(uint8,address,bytes4,bool)",
      "arguments": [
        "2",
        "0x8851862f714f2984c3E3Bcfc9Fafb57D67dB6845",
        "0x18457e61",
        "true"
      ],
      "transaction": {
        "from": "0x5c8a5483bcdb51f858a9cf4a647df6d34fddf81c",
        "to": "0x86f11a6db84635f566430e7cb0224f6c4ac6a28f",
        "gas": "0x129c5",
        "value": "0x0",
        "input": "0x7d40583d00000000000000000000000000000000000000000000000000000000000000020000000000000000000000008851862f714f2984c3e3bcfc9fafb57d67db684518457e61000000000000000000000000000000000000000000000000000000000000000000000000000000000000000000000000000000000000000000000001",
        "nonce": "0x11",
        "chainId": "0x3e7"
      },
      "additionalContracts": [],
      "isFixedGasLimit": false
    },
    {
      "hash": "0xfee45682333a58a01227de5109048599aeffb2265935beb5ad49770e806ee18b",
      "transactionType": "CALL",
      "contractName": null,
      "contractAddress": "0x86f11a6db84635f566430e7cb0224f6c4ac6a28f",
      "function": "setUserRole(address,uint8,bool)",
      "arguments": [
        "0x2f245E60EE78Acb2847D8FE1336725307C7B38Df",
        "2",
        "true"
      ],
      "transaction": {
        "from": "0x5c8a5483bcdb51f858a9cf4a647df6d34fddf81c",
        "to": "0x86f11a6db84635f566430e7cb0224f6c4ac6a28f",
        "gas": "0x1145b",
        "value": "0x0",
        "input": "0x67aff4840000000000000000000000002f245e60ee78acb2847d8fe1336725307c7b38df00000000000000000000000000000000000000000000000000000000000000020000000000000000000000000000000000000000000000000000000000000001",
        "nonce": "0x12",
        "chainId": "0x3e7"
      },
      "additionalContracts": [],
      "isFixedGasLimit": false
    }
  ],
  "receipts": [
    {
      "status": "0x1",
      "cumulativeGasUsed": "0xda464",
      "logs": [
        {
          "address": "0x86f11a6db84635f566430e7cb0224f6c4ac6a28f",
          "topics": [
            "0xa52ea92e6e955aa8ac66420b86350f7139959adfcc7e6a14eee1bd116d09860e",
            "0x0000000000000000000000000000000000000000000000000000000000000002",
            "0x0000000000000000000000008851862f714f2984c3e3bcfc9fafb57d67db6845",
            "0x39d6ba3200000000000000000000000000000000000000000000000000000000"
          ],
          "data": "0x0000000000000000000000000000000000000000000000000000000000000001",
          "blockHash": "0xa456b59b4b4da68044871b85018379bb928839b2c730d45e7cafafe7d35620b7",
          "blockNumber": "0x127a1ea",
          "blockTimestamp": "0x6919fadc",
          "transactionHash": "0x5be91866d3cda1dfcf408b99f08bcbd7d1222901b062fae5f82f1b15b5fbca79",
          "transactionIndex": "0x3",
          "logIndex": "0x1d",
          "removed": false
        }
      ],
      "logsBloom": "0x04000000010000000000000000000000000000000000020000000000000000000000000000000000000000000000000000000000000020000000000000000000800000000000000000000000000000000000000000000000000000000000000000000000000000000000000000000000000000000000480000000000000000000000000000000000000000000000000000000000010000000000000000000000000000000000000000000100000000000000000000000000000000004000000000000000000000000000000000080000000000000000000000010004000000000000000000000000000000000000000000000000008000000000000000004000",
      "type": "0x2",
      "transactionHash": "0x5be91866d3cda1dfcf408b99f08bcbd7d1222901b062fae5f82f1b15b5fbca79",
      "transactionIndex": "0x3",
      "blockHash": "0xa456b59b4b4da68044871b85018379bb928839b2c730d45e7cafafe7d35620b7",
      "blockNumber": "0x127a1ea",
      "gasUsed": "0xcb9b",
      "effectiveGasPrice": "0x8f0d180",
      "from": "0x5c8a5483bcdb51f858a9cf4a647df6d34fddf81c",
      "to": "0x86f11a6db84635f566430e7cb0224f6c4ac6a28f",
      "contractAddress": null
    },
    {
      "status": "0x1",
      "cumulativeGasUsed": "0xe6fff",
      "logs": [
        {
          "address": "0x86f11a6db84635f566430e7cb0224f6c4ac6a28f",
          "topics": [
            "0xa52ea92e6e955aa8ac66420b86350f7139959adfcc7e6a14eee1bd116d09860e",
            "0x0000000000000000000000000000000000000000000000000000000000000002",
            "0x0000000000000000000000008851862f714f2984c3e3bcfc9fafb57d67db6845",
            "0x18457e6100000000000000000000000000000000000000000000000000000000"
          ],
          "data": "0x0000000000000000000000000000000000000000000000000000000000000001",
          "blockHash": "0xa456b59b4b4da68044871b85018379bb928839b2c730d45e7cafafe7d35620b7",
          "blockNumber": "0x127a1ea",
          "blockTimestamp": "0x6919fadc",
          "transactionHash": "0x841a38c539b270c7a1d28313e9c0b56d82234ebacbe656e899b09dc8318be47a",
          "transactionIndex": "0x4",
          "logIndex": "0x1e",
          "removed": false
        }
      ],
      "logsBloom": "0x04000000010000000000000000000000000000000000000000000000000000000000000000000000000080000000000000000000000000000000000000000000800000000000000000000000000000000000000000000000000000000000000000000000000000000000000000000000000000000000480000000000000000000000000000000000000000000000000000000000010000000000000000000000000000020000000000000100000000000000000000000000000000004000000000000000000000000000000000080000000800000000000000010000000000000000000000000000000000000000000000000000008000000000000000004000",
      "type": "0x2",
      "transactionHash": "0x841a38c539b270c7a1d28313e9c0b56d82234ebacbe656e899b09dc8318be47a",
      "transactionIndex": "0x4",
      "blockHash": "0xa456b59b4b4da68044871b85018379bb928839b2c730d45e7cafafe7d35620b7",
      "blockNumber": "0x127a1ea",
      "gasUsed": "0xcb9b",
      "effectiveGasPrice": "0x8f0d180",
      "from": "0x5c8a5483bcdb51f858a9cf4a647df6d34fddf81c",
      "to": "0x86f11a6db84635f566430e7cb0224f6c4ac6a28f",
      "contractAddress": null
    },
    {
      "status": "0x1",
      "cumulativeGasUsed": "0xf3813",
      "logs": [
        {
          "address": "0x86f11a6db84635f566430e7cb0224f6c4ac6a28f",
          "topics": [
            "0x4c9bdd0c8e073eb5eda2250b18d8e5121ff27b62064fbeeeed4869bb99bc5bf2",
            "0x0000000000000000000000002f245e60ee78acb2847d8fe1336725307c7b38df",
            "0x0000000000000000000000000000000000000000000000000000000000000002"
          ],
          "data": "0x0000000000000000000000000000000000000000000000000000000000000001",
          "blockHash": "0xa456b59b4b4da68044871b85018379bb928839b2c730d45e7cafafe7d35620b7",
          "blockNumber": "0x127a1ea",
          "blockTimestamp": "0x6919fadc",
          "transactionHash": "0xfee45682333a58a01227de5109048599aeffb2265935beb5ad49770e806ee18b",
          "transactionIndex": "0x5",
          "logIndex": "0x1f",
          "removed": false
        }
      ],
      "logsBloom": "0x04000000010000000000000000000000000000000000000000000000000000000000000000000000000000800000000000000000000000000000000000000000000000000008000000000000000000000000000000000000000000000000000000000000000000000000000000000000000000000000400000000000000000000000000000000000000000000000000000000080000000000000000000000000000000000000000000000100000000000000000000000000000000004000000000000000000000000000000000000000000000000000000000000000000000000000000000000000000000000000000000400080008000000000000000000010",
      "type": "0x2",
      "transactionHash": "0xfee45682333a58a01227de5109048599aeffb2265935beb5ad49770e806ee18b",
      "transactionIndex": "0x5",
      "blockHash": "0xa456b59b4b4da68044871b85018379bb928839b2c730d45e7cafafe7d35620b7",
      "blockNumber": "0x127a1ea",
      "gasUsed": "0xc814",
      "effectiveGasPrice": "0x8f0d180",
      "from": "0x5c8a5483bcdb51f858a9cf4a647df6d34fddf81c",
      "to": "0x86f11a6db84635f566430e7cb0224f6c4ac6a28f",
      "contractAddress": null
    }
  ],
  "libraries": [],
  "pending": [],
  "returns": {},
  "timestamp": 1763310300536,
  "chain": 999,
  "commit": "342829f"
}